:020000040000FA
:030000000200E318
:03003300020FEBCE
:03004B0002107A26
:03006B00020F255C
:03007B00020F7EF3
:1000830002104200000080FB120113B900030200BA
:10009300CDE490010178B379058002F0A3D8FCD9AF
:1000A300FA9005B3AA82AB8390011678797902801E
:1000B30015E493A3AC82AD838A828B83F0A3AA82D7
:1000C300AB838C828D83D8E9D9E775829A758310C7
:1000D30074001200F575828675830074001200F5B2
:1000E30075D0007581BF751001751101759F0002F0
:1000F300008BC09FF59FE473D09F22D083D082C032
:100103009FE493C0E0740193C0E0740293F59F22CF
:10011300790122454D53205465616D2773004C6F5F
:100123006164205369676E617475726500416C6721
:100133006F726974686D00507265737320427574D1
:10014300746F6E203100746F20726561642074686F
:100153006500446F6E65210053746F72656420748B
:100163006865207761766500496E746F2042756615
:1001730066657200746F20446973706C6179005016
:10018300726F7065727469657300200043616C63FC
:10019300756C6174696E6700506C65617365207777
:1001A300616974004D61782C204D696E005269734A
:1001B300652054696D6520287573290031383048EE
:1001C3007A20726573706F6E736500333030487ACE
:1001D30020726573706F6E73650054686520776174
:1001E3007665666F726D20697300556E7265636F15
:1001F300676E697A61626C65005369676E616C0052
:10020300412046616E005175616E746974792031C5
:10021300005175616E74697479203200536861729C
:1002230070205456005365742D546F702D426F78AF
:100233000048502D4C6170746F700000007A4400C8
:100243000000006666663FCDCCCC3DD80FC9400A9E
:100253000000008096184B83F9223F01FC7F470082
:1002630000803E00008040FBD71E39652699BB58AD
:1002730034A33DE15D25BFDB0FC93F01000000C58D
:1002830003423F1A51123FF304B53F1200FEB02C54
:10029300001200FEE42C001200FE5C2D001200FE92
:1002A300E72B001200FE272C001200FE0D2D00127A
:1002B30000FE9F2D001200FEFA24001200FE0F25FF
:1002C300001200FE2125001200FE5A25001200FE36
:1002D3008C25001200FECE25001200FEE52500123B
:1002E30000FEF025001200FEF525001200FE342664
:1002F300001200FE8126001200FEE72A001200FE13
:10030300152B001200FE3D2B001200FE6B2B00127A
:1003130000FE932B001200FEC02B001200FEB2144D
:10032300001200FE7416001200FE581A001200FE9E
:10033300C21E001200FE6F1F001200FE29280012C9
:1003430000FE5229001200FE7D2D001200FE4F2CEC
:10035300001200FE4B2A001200FE902D001200FE38
:100363005D22001200FE992600A2E792D65002F405
:100373000430F70663F0FF05F0B340038480038481
:10038300F40430D60563F0FF05F022C3E09608A31A
:10039300E09608A3E09608A3E096A2D265D03322A4
:1003A300080808E630E711120C4A1203BB080808D4
:1003B300C64480C618181822181818E9799EC6086A
:1003C300CAC608CBC608CCC6C370207996CACBCCA4
:1003D3007019798ECBCC70137986CC700EF9802A84
:1003E300CA33CACB33CBCC33CC331930E7F2CCCBC3
:1003F300CA3350147004EA30E00DE4CA3ACACB3B66
:10040300CBCC3CCC500209C3E913C6CC182313C68A
:10041300CB18C6CA18C6F92212045B20F01430E7C1
:100423002B74FFFCFBFA747F8022E4FCFBFA7480DC
:10043300801AB48008BC00F2BB00EF800F50EBF9C8
:10044300E4C39AFAE49BFBE49CFCE499C6CC18C68B
:10045300CB18C6CA18C6F922E4C9C608CAC608CB4F
:10046300C6D3330308CCC63392F0C3947F402E9493
:10047300184019C9B90704CACBCC225025C309CAED
:1004830033CACB33CBCC33CC33D9F422F4600DC98C
:10049300CCC313CB13CBCA13CAD9F6CC22E4FCFBCF
:1004A300FA2214FCFBFA22E6C33318461846184610
:1004B30022E7C33319471947194722181818E608C2
:1004C3004608700AE608C3337005E633F4220822AF
:1004D300191919E7094709700AE709C3337005E7D2
:1004E30033F4220922E6084608C3134608336002A0
:1004F300E633F422E7094709C3134709336002E7E8
:1005030033F4221204E860251204F760201204AACF
:1005130070030204B4080808E76670101819E76648
:10052300700A1819E76670041819E76622F4221294
:1005330004E8601C1204F760171204AA700712047F
:10054300B47001D322C0D01204B47006D0D0B32249
:10055300C32233D0D0501430E0F6C3E7960809E73E
:10056300960809E7960809E796B32220E0D5E697AF
:100573000809E6970809E6970809E697B3221204E3
:10058300E8601B1204F760161204AA70071204B481
:10059300600CB322C0D01204B47005D0D022C322A1
:1005A30033D0D0501330E0EBC3E7960809E7960841
:1005B30009E7960809E7962220E0E4E6970809E6AA
:1005C300970809E6970809E69722001204E8604FA6
:1005D3001204F76012E7548066F61204BE7011121B
:1005E30004B4703B090909F4F618F618F618F62254
:1005F3001204D370151204AA08080860EAE6447FBF
:10060300F618768018E4F618F6221204AA60161279
:1006130004B47012E4F608F608F608E65480F60906
:10062300090918181822EAC0E0EBC0E0ECC0E0EDBD
:10063300C0E0E687F0A4FBACF008E687F0A42CFC4E
:10064300E435F0FA1809E687F0A42C4B6002740134
:10065300CA35F0FCE433FB09E687F0D2F7A42CCBD0
:1006630035F0FC1908E687F0A42BCC35F0FBE43316
:10067300FD0819E687F0D2E7A42C4ACB35F0CD3438
:1006830000FC09E687F0D2E7A42DCC35F0FDE43376
:10069300FA0918E687F0D2F7A42CCD35F0CA340056
:1006A300FC08E687F0D2E7D2F7A42ACC35F07A7EAD
:1006B30020E70B0ACB33CBCD33CDCC33CC33CB3389
:1006C30050147004ED30E00ED2F1E4CD3DCDCC3CBE
:1006D300CC3B5005DA05C2F1EB547FC63308E63351
:1006E30092F0FBE73309E733C39A502D2B70190CB3
:1006F3000D4C4D70151806E608C333700D20F10A32
:10070300A2F013F6E418800B4024E4F630F00276EE
:100713008018F618F618F68024D33B14501074FF93
:10072300A2F013F6187680E418F618F6800FA2F0FC
:1007330013F618E63303F618ECF618EDF6D0E0FDE1
:10074300D0E0FCD0E0FBD0E0FA221204F7604612BE
:1007530004E8603DE9687008F618F618F618F62202
:10076300748067F7120781090909748067F72212F9
:1007730004E8601D1204F77005191919801A120490
:10078300BE701F1204D3C37003E6673319191940EF
:10079300071818182208080874FFF618F618F61830
:1007A300F6221204D360171204B4702192F01204DB
:1007B300AA7019501720F014080808090909E7F668
:1007C3001819E7F61819E7F61819E7F6221204AA1A
:1007D30060E6E869701F0808E62480F608E436F648
:1007E30018547FB47F0CE654806007F6E418F618BB
:1007F300F622181822E9C6CC08C6CD08C6CE08C60C
:10080300CFC0E0E8C0E0EAC0E0EBC0E009E9F809E6
:10081300E7FA09E7FBE6F918E6F8C3EC98ED99EE79
:100823009AEBC2E7F5F0EFC2E795F0500E600CEBE0
:10083300CFFBEACEFAE9CDF9E8CCF8EAA2E7D2E7B2
:10084300FAEB33FB13F5F0EEA2E7D2E7FEEF33FF4B
:10085300C5F013A2E730E601B313C5F0C3C0E0C08F
:10086300F07F00C39BFB605E9418600F401D146013
:100873001AD0E023F9D0E0F80209538AF0E948607E
:1008830003D2F0E4AFF0FAF9F8803BEB30E40D89E2
:10089300F0EA6003D2F0E4AFF0F9CAF8EB30E30D0D
:1008A30088F0EF6002D2F0AFF0E4CAC9F8EB540766
:1008B3006014FBC3EA13FAE913F9E813F8EF1350D2
:1008C30002D2E0FFDBEDD0E0C0E030E739C3E49FC4
:1008D300FFF5F0EC98FC42F0ED99FD42F0EE9AFE44
:1008E30042F0D0E0F9D0E0F8E5F0607AE923F9EEE0
:1008F30020E742D8028067C3EF33FFEC33FCED33CC
:10090300FDEE33FE80EAEC28FCED39FDEE3AFED035
:10091300E023F9D0E0F84002801BC3EE13FEED1391
:10092300FDEC13FCEF135002D2E0FF08B800067F82
:100933007F74FF802EEF3350178CF020F00260108D
:100943000CBC000C0DBD00080EBE000408E860DFFF
:10095300E933E813FFEE2313FE4F4D4C8008E954AF
:1009630080FFE4FEFDFCEE33EF33F47004FCFD7E08
:1009730080D0E0FBD0E0FAD0E0F8D0E0CFC618CECC
:10098300C618CDC618CCC6F9221204E8700418188C
:1009930018221204F7700D74FFF61819F61819F6D9
:1009A3001819F622E7548066F61204AA700F12048F
:1009B300B470F014F608F608F608F680D11204B401
:1009C300700CF608F608768008E6447F80EC120483
:1009D300D6700C1204C160BFE65480F6E480BB12EB
:1009E30004C1700519191980A5E869700C763F18C0
:1009F300768018F618F6E8F922E6CDC0E018ECC0C8
:100A0300E0E633CD33CDD313F6E719FCE7191933F9
:100A1300CC33C3947F400ECD9D502408E65480F61A
:100A2300E418F6800FF4043D14501408E6447FF6EE
:100A3300187680E418F618F6D0E0FCD0E0FD22CC5E
:100A4300D313CCFD18E4C6CBC0E018E4C6CAC0E09B
:100A53000808ED08C633E613F618E433C675F00349
:100A6300C3CA97CA09CB97CB199C40047D08802E33
:100A7300BD0003020B3516B6FF050606081618C39C
:100A8300CA33CACB33CB33CA27CA09CB37CB193CBA
:100A9300C37D08803E187D0820E75CC633C6CA3391
:100AA300CACB33CB33DDF1D5F0EB30E77BCA97CA42
:100AB30009CB974ACB199C406F4B7025E620E02168
:100AC3008066187D08C3CA97CA09CB97CB199CD3F4
:100AD300C633C6CA33CACB33CB3350C9DDE7D5F0EF
:100AE300E1D3E4C636C608C636C608C636C608C647
:100AF30036C61818188031C3CA97CA09CB97CB19C1
:100B03009CB34097C633C6CA33CACB33CB33DD3429
:100B1300D5F02EC6A2E0C640C8CA27CA09CB3719EA
:100B23004A70BECB3CB480B90808E63308E63360AC
:100B33001F181818D0E0FAD0E0FBD0E0FCD0E0FD9D
:100B430022187D08CA27CA09CB37CB193CD380802A
:100B530013F618E4B67F11F618B6FF0EF618C6049E
:100B630070D20808768080CAF618F618F680C5E4B5
:100B7300CFC0E0E4CEC0E0E4CDC0E0E4CCC0E0759B
:100B8300F020C3E633F608E633F608E633F608E664
:100B930033F6181818EC33FCED33FDEE33FEEF3368
:100BA300FFC3EC9709ED9709EE9709EF9719191908
:100BB300400FFFEC97FC09ED97FD09EE97FE19191D
:100BC30006D5F0BEECF709EDF709EEF709EFF719D3
:100BD3001919D0E0FCD0E0FDD0E0FED0E0FF2212F6
:100BE3000C4D181818120B72120C391919192212FC
:100BF3000C39191919080808E618181820E7E01223
:100C03000B72120C4D18181822090909E719191942
:100C130020E7DC080808E618181820E703020B721F
:100C2300120C4D181818120B72120C4D18181812BA
:100C33000C3919191922E4C397F709E497F709E462
:100C430097F709E497F722181818E4C396F608E40F
:100C530096F608E496F608E496F622E0F608A3E092
:100C6300F608A3E0F608A3E0F622E6F008A3E6F010
:100C730008A3E6F008A3E6F022E0FAA3E0FBA3E072
:100C8300FCA3E0FD22EAF0A3EBF0A3ECF0A3EDF06C
:100C930022CAC0E0E6F0A308DAFAD0E0FA22C3E4FD
:100CA30098F8E499F9120CE28026C3E49AFAE49BDB
:100CB300FBE920E7E9120CE2E498F8E499F922C38E
:100CC300E498F8E499F9120CE2E498F8E499F9C38A
:100CD300E49AFAE49BFB22EB20E7CFE920E7E0B9B3
:100CE3000010BB0008E88AF084F8AAF022E4FBC8ED
:100CF300FA22EB70227B10C833C8C933C9335007BB
:100D0300C39AC3DBF280069A50012ADBEAC833F4A4
:100D1300C8C933F4C9FA2275F008E4C833C8C93323
:100D2300C933C99AC99B5004C92AC93BD5F0ECFB06
:100D3300C833F4C8E4C9FA22700422600D18C6C38C
:100D430033C608C633C6D5E0F41822251010AF0801
:100D5300F510400215118008F51040021511D2AFAD
:100D630022C0D0251010AF08F510500205118008DD
:100D7300F51050020511D2AFD0D0222510F5821004
:100D8300AF08F510400215118008F5104002151147
:100D9300D2AF851183222510F582E43511F5832224
:100DA300E4732510C582C0E0E51134FFC583C0E0BC
:100DB300E510C3958224F810AF088583118582104E
:100DC3008008858311858210D2AFCEF0A3E520F091
:100DD300A37808E608F0A3DEFAEFF0A3E58124FA8E
:100DE300F8E608F0A3E608F0A3E608F0A30808E68F
:100DF30008F0A3E608F0A315811581D0E0FED0E04A
:100E0300F8158115811581E8C0E0EEC0E022851157
:100E130083851082E0A3FEE0A3F5207808E0A3F623
:100E230008DFFAE0A3FFE0A3C0E0E0A3C0E0E0A393
:100E3300C0E0E0A3C0E0E0A3C0E010AF08858210EB
:100E43008583118008858210858311D2AFD083D02A
:100E5300820200FBC0D02510C582C0E0E51134FF3B
:100E6300C583C0E0E510C3958224F310AF088583E2
:100E7300118582108008858311858210D2AFC8F056
:100E8300A3E9F0A3EAF0A3EBF0A37908E709F0A341
:100E9300D8FAECF0A3EDF0A3EEF0A3EFF0A3D0E0CB
:100EA300F0A3D0E0F0A3D0E0F0A3E520F0A3E5F0B9
:100EB300F0A322851183851082E0C0E0A3E0F9A3AB
:100EC300E0FAA3E0FBA37808E0F608A3DFFAE0FC6E
:100ED300A3E0FDA3E0FEA3E0FFA3E0C0E0A3E0C026
:100EE300E0A3E0F5D0A3E0F520A3E0A3F5F010AF75
:100EF300088583118582108008858311858210D22D
:100F0300AFD082D083D0E0F8D0E03274048006748E
:100F13000280027401C0E0F404120D7ED0E0120CD2
:100F23009422C0E074F1120E57C2C5E58960477E72
:100F330000750801750900EE7808120D3BAF08E54E
:100F4300895F602BEEC333F8E433F9740128F5822B
:100F53007401120FD46014EEC333F8E433F974014F
:100F630028F5827401120FDF120DA3EFF452890EDC
:100F7300EEC3940840BB7F02020EB6C0E074F112C8
:100F83000E57C2EBE58A60477E00750801750900BC
:100F9300EE7808120D3BAF08E58A5F602BEEC33392
:100FA300F8E433F9741128F5827401120FD4601434
:100FB300EEC333F8E433F9741128F5827401120F88
:100FC300DF120DA3EFF4528A0EEEC3940840BB80E8
:100FD300A539F583E0F8A3E0F9E8492239F583E080
:100FE300F8A3E0F583888222C0E074F1120E57C2A1
:100FF300E8E58B60477E00750801750900EE780807
:10100300120D3BAF08E58B5F602BEEC333F8E4337F
:10101300F9742128F5827401120FD46014EEC333DE
:10102300F8E433F9742128F5827401120FDF120DED
:10103300A3EFF4528B0EEEC3940540BB020F79C0AD
:10104300E074F2120E57A2AFE433FEC2AFE5E9A299
:10105300E6501A90013CE0F8A3E0F9E8496008E0A3
:10106300F5838882120DA3759B0053E9BFEEA2E0BE
:1010730092AF7F01020EB6C0E074F2120E579001D8
:101083003EE0F8A3E0F9E8496008E0F583888212BE
:101093000DA37F01020EB61202A079011202FA1209
:1010A30002D61203307508CD7509057808120F12A0
:1010B3007CBE7D057AB37B051202EE7402120D64C9
:1010C3001202ACE9640170F8900541E4F0A3F090DA
:1010D3000543F0A3F0900545F0A3F0900547F0A376
:1010E300F0900549F0A3F090054BF0A3F0F8F9E870
:1010F300FAE9FBEAC333FAEB33FB748D2AF5827406
:10110300053BF583E4F0A3F0121495E89404E91287
:101113001A3E40DB7508BE7509057808120F127C6C
:10112300E67D057AD77B051202EE7402120D641276
:1011330002ACE9640170F87A5E7B011203181202B3
:10114300D67E007F0043F24079011202FAC28D7508
:10115300B696A28D50FCE5BB547F900140F0790117
:1011630012030053F2BF900140E075F064A4F8A9A4
:10117300F07A277B00120CDAE82467FAE934FFFBE4
:10118300EEF8EFF9E8C333F8E933F9744128F5824F
:10119300740139F583121A4C7AC87B0012031212B8
:1011A30022579402A2D265D033409A750808750974
:1011B300067808120F127CF87D057AF27B0512027D
:1011C300EE7402120D641202ACE9640170F8750842
:1011D3001F7509067808120F127C147D067AD77BD7
:1011E300051202EE7402120D641202ACE96401707E
:1011F300F81202D67508387509067808120F127CA2
:101203002C7D067A2A7B061202EE7402120D647C90
:10121300307DF878007900121475E0FAA3E0FBC37F
:10122300EC9AED9BA2D265D033500312149F121493
:101233008F40E4900541ECF0A3EDF07CD07D07787E
:10124300007900121475C3E09CA3E09DA2D265D07F
:1012530033500312149F12148F40E8900543ECF0AF
:10126300A3ED1214A812031E900547121A4C900501
:1012730041C082900543122228758305D082E0C3C2
:1012830098F8A3E099F9900545E8F0A3E91214A8AA
:101293001203248A088B098C0A8D0B9006DB780CC9
:1012A300120C5E7808790C1205CD780812041B9095
:1012B3000549E508F0A3E5091214A812032A8A08D0
:1012C3008B098C0A8D0B9006DB780C120C5E780868
:1012D300790C1205CD780812041B90054BE508F034
:1012E300A3E509F090054712222890058D121A46AE
:1012F30090054912222890058F121A4690054B1229
:101303002228900591121A4690054512222890052D
:1013130093121A461202D675082A7509067808121E
:101323000F127C447D067A2A7B061202EE740212A7
:101333000D647508567808120F1690054312166D42
:10134300120F0E75082C7808120F16900541E0FA5B
:10135300A3E0FB3395E0FCFD79011203427406120E
:101363000D641202ACE9640170F81202D675082A02
:101373007509067808120F127C4D7D067A2A7B06C2
:101383001202EE7402120D647508737808120F16B8
:1013930090054712166D120F0E75082C7808120F60
:1013A300169006DF120C7C79011203427406120DAB
:1013B300641202ACE9640170F81202D675082A754A
:1013C30009067808120F127C5C7D067A2A7B0612C6
:1013D30002EE7402120D647508207808120F16903D
:1013E300054912166D120F0E75082C7808120F1688
:1013F3009006DF120C7C79011203427406120D640D
:101403001202ACE9640170F81202D675082A750954
:10141300067808120F127C6B7D067A2A7B0612026D
:10142300EE7402120D647508207808120F169005E9
:101433004B12166D120F0E75082C7808120F1690AA
:1014430006DF120C7C79011203427406120D64123A
:1014530002ACE9640170F87AE87B031203187A8D11
:101463007B051203361202ACE9640170030210CB50
:1014730080F312147922E8FAE9FBEAC333FAEB3377
:10148300FB74412AF58274013BF58322121495946F
:101493000222E8240108E93400F9C322121479E096
:1014A300FCA3E0FD22F07C007D027A417B012274E3
:1014B300F0120DA574FA120D4E7404120D99121A3E
:1014C3004C7A007B00851082851183E4F0A3F074CD
:1014D30002120D997401F0A3E4F07C007D00740204
:1014E300120D99E0FEA3E0FFEE75F053A4FEA8F001
:1014F30075F053EFA4288049EEF8EFF9E8C333F809
:10150300E933F97404120D99122248C3EC98ED12D1
:101513002241502AEEF8EFF9E8C333F8E933F974BE
:1015230004120D99E028FCA3E0398C82F583E0FCDA
:10153300A3E0FD851082851183EEF0A3EFF0121E68
:1015430014FF7402120D99E02401F8A3E03400F9AA
:10155300E875F053A4F885F00875F053E9A425085D
:10156300F9C3EE98EF994090121658120D99E0289E
:10157300FEA3E0398E8212166B1203A3C008C009C2
:10158300C00AC00B8C08ED121A281203A39006E3BD
:10159300780C120C5E7808790C1205CDD00FD00EA2
:1015A300D00DD00C780C7908120581400302164245
:1015B3007E01121658120D9912220D12166B120388
:1015C300A3C008C009C00AC00B8C08ED121A281268
:1015D30003A39006E7780C120C5E7808790C1205C9
:1015E300CDD00FD00ED00DD00C780C790812058118
:1015F30050027E00121648EA24010AEB3400FBEE87
:10160300A2E040AE7402120D99121A52120D99C340
:10161300E09404A3E0940050030214DDEA75F0C8DB
:10162300A4FAA8F075F0C8EBA428FBEAF8EBF97A62
:10163300037B00120CDAE8FAE9FB7406021A1D12A6
:10164300164802156B851082851183E024FFF0A3F1
:10165300E034FFF022851082851183122251E8C302
:1016630033F8E933F9740422F583121DFD121A2E9F
:101673002274F0120DA574E0120D4E7412120D991E
:10168300121A4C740C120D99ECF0A3EDF0740812BD
:101693000D99121E55120D99121E3B120D99121E11
:1016A30035120D99121E4E7E007F000217AF740C87
:1016B300120D99121DF21203BE7414120D997808BB
:1016C300120C6D121A251203A39006EB780C120C60
:1016D3005E7808790C1205CD121E1C1203A378083C
:1016E300790C1205CD7414120D99780C120C5E78D6
:1016F30008790C12098C740E120D997808120C6D6E
:10170300740E120D99120C7C1203488A088B098CF3
:101713000A8D0BEEF8EFF9E8C333F8E933F97412E5
:10172300120D99121DDF120D99121A467402120D31
:1017330099121E0B1203A3780C79081205CD7408B5
:10174300120D997808120C5E780C790812077274DE
:1017530008120D99780C120C6D740E120D99120C5F
:101763007C12035A8A088B098C0A8D0B7404120DA0
:1017730099780C120C5EC00CC00DC00EC00F740221
:10178300120D99121E0B1203A3780C79081205CDC2
:10179300D00BD00AD009D0087808790C12074D7401
:1017A30004120D997808120C6D121E0F740C120D91
:1017B30099121DE950030216B17408120D997808A5
:1017C300120C5E7408120D99780C120C5E7808796D
:1017D3000C1205CDC008C009C00AC00B7404120D59
:1017E30099780C120C5E7404120D997808120C5E31
:1017F300780C79081205CDD00BD00AD009D008781F
:1018030008790C120772AA08AB09AC0AAD0B1203D4
:10181300668A088B098C0A8D0B741C120D99780C3F
:10182300120C5E780C7908120581500A741C120D93
:10183300997808120C6D7408120D99121E55120D29
:1018430099121E9450030216AA7402120D99E4F021
:10185300A3F07E007F0002194F740C120D99121D24
:10186300F21203BE7414120D997808120C6D121A39
:10187300251203A39006EB780C120C5E7808790C02
:101883001205CD7402120D99E02411121E251203C4
:10189300A37808790C1205CD7414120D99780C12E3
:1018A3000C5E7808790C12098C740E120D99780865
:1018B300120C6D740E120D99120C7C1203488A08D7
:1018C3008B098C0A8D0BEEF8EFF9E8C333F8E93393
:1018D300F97412120D99121E5B1203A3780C790886
:1018E3001205CD7408120D997808120C5E780C79E4
:1018F300081207727408120D99780C120C6D740E8D
:10190300120D99120C7C12035A8A088B098C0A8DCA
:101913000B7404120D99780C120C5EC00CC00DC030
:101923000EC00F121E051203A3780C79081205CD01
:10193300D00BD00AD009D0087808790C12074D745F
:1019430004120D997808120C6D121E0F740C120DEF
:1019530099121DE9500302185C7408120D99780856
:10196300120C5E7408120D99780C120C5E780879CB
:101973000C1205CDC008C009C00AC00B7404120DB7
:1019830099780C120C5E7404120D997808120C5E8F
:10199300780C79081205CDD00BD00AD009D008787D
:1019A30008790C120772AA08AB09AC0AAD0B120333
:1019B300668A088B098C0A8D0B7418120D99780CA2
:1019C300120C5E780C7908120581500A7418120DF6
:1019D300997808120C6D7408120D99121E55120D88
:1019E30099121E2F120D99121A52120D99121A38AA
:1019F30050030218557418120D997808120C5E746E
:101A03001C120D99780C120C5E7808790C12098C53
:101A1300AA08AB09AC0AAD0B7420120D647F08024F
:101A23000E118E08EFF509121A2E223395E0F50AEE
:101A3300F50B780822C3E09403A3E09400A2D265D7
:101A4300D03322E8F0A3E9F022EAF0A3EBF022126C
:101A53001EAE74022274F0120DA574E0120D4E74C2
:101A630012120D99121A4C740C120D99ECF0A3ED8D
:101A7300F07408120D99121E55120D99121E3B1285
:101A83000D99121E35120D99121E4E7E007F000213
:101A93001B93740C120D99121DF21203BE741412CF
:101AA3000D997808120C6D121A251203A39006EBF8
:101AB300780C120C5E7808790C1205CD121E1C12DC
:101AC30003A37808790C1205CD7414120D99780CC0
:101AD300120C5E7808790C12098C740E120D997829
:101AE30008120C6D740E120D99120C7C1203488AA5
:101AF300088B098C0A8D0BEEF8EFF9E8C333F8E98C
:101B030033F97412120D99121DDF120D99121A4630
:101B13007402120D99121E0B1203A3780C7908128A
:101B230005CD7408120D997808120C5E780C7908AB
:101B33001207727408120D99780C120C6D740E1240
:101B43000D99120C7C12035A8A088B098C0A8D0B8F
:101B53007404120D99780C120C5EC00CC00DC00EEB
:101B6300C00F7402120D99121E0B1203A3780C7985
:101B7300081205CDD00BD00AD009D0087808790C0B
:101B830012074D7404120D997808120C6D121E0F72
:101B9300740C120D99121DE95003021A9574081260
:101BA3000D997808120C5E7408120D99780C120CBA
:101BB3005E7808790C1205CDC008C009C00AC00BB5
:101BC3007404120D99780C120C5E7404120D99783A
:101BD30008120C5E780C79081205CDD00BD00AD010
:101BE30009D0087808790C120772AA08AB09AC0A65
:101BF300AD0B1203668A088B098C0A8D0B741C12B9
:101C03000D99780C120C5E780C7908120581500A34
:101C1300741C120D997808120C6D7408120D991228
:101C23001E55120D99121E945003021A8E7402123D
:101C33000D99E4F0A3F07E007F00021D33740C12B3
:101C43000D99121DF21203BE7414120D9978081225
:101C53000C6D121A251203A39006EB780C120C5E7E
:101C63007808790C1205CD7402120D99E0241E1226
:101C73001E251203A37808790C1205CD7414120DD6
:101C830099780C120C5E7808790C12098C740E1278
:101C93000D997808120C6D740E120D99120C7C12AA
:101CA30003488A088B098C0A8D0BEEF8EFF9E8C319
:101CB30033F8E933F97412120D99121E5B1203A360
:101CC300780C79081205CD7408120D997808120C56
:101CD3005E780C79081207727408120D99780C1249
:101CE3000C6D740E120D99120C7C12035A8A088B18
:101CF300098C0A8D0B7404120D99780C120C5EC0BA
:101D03000CC00DC00EC00F121E051203A3780C7970
:101D1300081205CDD00BD00AD009D0087808790C69
:101D230012074D7404120D997808120C6D121E0FD0
:101D3300740C120D99121DE95003021C4074081211
:101D43000D997808120C5E7408120D99780C120C18
:101D53005E7808790C1205CDC008C009C00AC00B13
:101D63007404120D99780C120C5E7404120D997898
:101D730008120C5E780C79081205CDD00BD00AD06E
:101D830009D0087808790C120772AA08AB09AC0AC3
:101D9300AD0B1203668A088B098C0A8D0B7418121B
:101DA3000D99780C120C5E780C7908120581500A93
:101DB3007418120D997808120C6D7408120D99128B
:101DC3001E55120D99121E2F120D99121A52120D31
:101DD30099121A385003021C390219F8E028F8A3A3
:101DE300E039F9740222122251C3EE98EF992212BC
:101DF3001DFDE4F50AF50B780822E0F508A3E0F5EC
:101E03000922851082851183121E7722121E14FF68
:101E130022EE24010EEF340022851082851183E027
:101E23002405F50CA3E03400121E8822121E41740F
:101E33000222121E41741822121E41741C22121E09
:101E43004522E4F0A3F0A3F0A3F022121EB8F0A3FE
:101E5300F022121E41740422E028F8A3E039F98528
:101E63001082851183E8F0A3E9F085108285118340
:101E7300121E7722E0F8A3E0F5838882E0F50CA335
:101E8300E0121E8822F50D3395E0F50EF50F780C60
:101E930022121EB8121EAE851082851183C3E094F0
:101EA30003A3E09400A2D265D03322E02401F0A37F
:101EB300E03400F022121E4585108285118322C072
:101EC30082C08390054D74DCF0A37405F0A37460A5
:101ED300F0A37409121F40F0A374FA121F40F0A379
:101EE300F0A374C8121F407482121F407496121F0D
:101EF3004074D0F0A37407F0A374A0F0A3740FF0A0
:101F0300A3121F51121F517423121F407432F0A3E6
:101F1300E4121F61121F61121F56742CF0A3740187
:101F2300121F4674C8F0A3E4121F46746E121F40BA
:101F330074DCF0A3E4F0D083D0820200FBF0A3E4CE
:101F4300F0A322F0A374DCF0A37405F0A32274645D
:101F5300F0A3E4F0A374F4F0A37401F0A322121F1E
:101F63006A121F6AF0A322121E46A32274F0120DF6
:101F7300A574FC120D4E7402120D99121A4C750CB5
:101F83000085108285118374FFF0A3F07A017C0031
:101F93007D00750E00750F007E007F008E0A8F0B8B
:101FA3007402780A120D3B8C088D097404780812A8
:101FB3000D3B122200C082C083EEF8EFF9E8C33371
:101FC300F8E933F97402120D99122248D083D082B2
:101FD300122238504FEEF8EFF9E8C333F8E933F93A
:101FE3007402120D99E028A3E039850882F583C0B5
:101FF30082C0838C0A8D0B7404780A120D3B8E0801
:102003008F0974027808120D3B12221CD083D082F0
:10201300122238500FE50E2401F50EE50F3400F5BA
:102023000F0220CD7403650E7002E50F60030220DA
:10203300CD8E0A8F0B7402780A120D3B8C088D0922
:1020430074047808120D3B122200121DFDE508C32B
:1020530033F508E50933F509EEF8EFF9E8C333F88A
:10206300E933F97402120D99E028F50AA3E03985E2
:102073000A82122226C3E50898E509122241504A32
:10208300EEF8EFF9E8C333F8E933F97402120D9966
:1020930012220DF583C082C0838C0A8D0B740478E1
:1020A3000A120D3B8E088F0974027808120D3B1239
:1020B300221CE8C333F8E933F9D083D082122238E3
:1020C3005008750E04750F007A02122257EE94041D
:1020D300EF121A3E5003021F9FC3E50E9404E50F4F
:1020E300121A3E4012851082851183ECF0A3EDF0A5
:1020F300750C017C047D00EC24010CED3400FDC360
:10210300EC9404ED121A3E5003021F95E50CA2E075
:1021130040127508997509067808120F127C8A7D9A
:10212300060221EF851082851183122228E8497067
:1021330027EA640170087508A6750906800EEA642B
:102143000260030221FB7508B17509067808120FB6
:10215300127CA07D060221EF851082851183E06445
:10216300017002A3E07023EA640170087508A67584
:102173000906800BEA6402707F7508B17509067859
:1021830008120F127CBC7D06806285108285118344
:10219300E064027002A3E07023EA6401700875082A
:1021A300A6750906800BEA6402704D7508B17509BE
:1021B300067808120F127CC57D0680308510828553
:1021C3001183E064037002A3E0702DEA64017008D8
:1021D3007508A6750906800BEA6402701B7508B1C1
:1021E3007509067808120F127CD17D067A7A7B0670
:1021F3001202EE7402120D647404021A1D744D254A
:1022030008F8740512222CF5832212221122E028E9
:10221300F508A3E03985088222744F2508F8740570
:1022230012222CF583122251223509F9E8250AF5E9
:1022330082E9350B22C3E098A3E01222412299A23E
:10224300D265D03322122211F58312225122E0F8F3
:10225300A3E0F922121E14FFC32274F0120DA57419
:10226300F3120D4EE9851082851183F08A0C8B0DD4
:102273008C0E8D0F9006DF7808120C5E780C7908AF
:102283001205815004D2F08002C2F0A2F0E433338D
:10229300F8851082851183E028F0EDC2E7F50F90F1
:1022A30006F77808120C5E780C79081205CD9006B3
:1022B300FB7808120C5E780C790812053240030291
:1022C300239F7401120D998582088583097808126A
:1022D3000F12AA0CAB0DAC0EAD0F12035474021205
:1022E3000D647405120D99120C8885108285118373
:1022F300E0F508E4F509F50AF50B78081203BE7456
:1023030001120D99780C120C5E7808790C12077281
:102313007401120D997808120C6D7409120D9985C8
:1023230082088583097808120F127403120D9978B5
:1023330008120C5E9006FF780C120C5E7808790C7C
:102343001205CDAA08AB09AC0AAD0B1203547402F3
:10235300120D647401120D997808120C5EC008C046
:1023630009C00AC00B7409120D99780C120C5E9007
:1023730007037808120C5E780C79081205CDD00B90
:10238300D00AD009D0087808790C12074D780812C2
:10239300041B851082851183E5088038850C088528
:1023A3000D09850E0A850F0B780812041BAA08E491
:1023B300F50AF50B78081203BE780C790812074D5D
:1023C3007405120D99780C120C6D8510828511839A
:1023D300E02A5403F0E0A2E05027750800750900D5
:1023E300750A80750B3F7405120D99780C120C5EFB
:1023F3007808790C12074D7405120D997808120CA0
:102403006D851082851183E0C39402401A7405120E
:102413000D997808120C5EE50BB2E7F50B74051203
:102423000D997808120C6D7405120D997808120C29
:102433005E7405120D99780C120C5E7808790C12F3
:1024430005CD7401120D997808120C6D7401120DEB
:10245300997808120C5E900707780C120C5E7808C6
:10246300790C1205CD90070B780C120C5E78087965
:102473000C1207727401120D99780C120C5E780815
:10248300790C1205CD90070F780C120C5E78087941
:102493000C1207727401120D99780C120C5E7808F5
:1024A300790C1205CD900713780C120C5E7808791D
:1024B3000C1207727401120D99780C120C5E7808D5
:1024C300790C1205CD900717780C120C5E780879F9
:1024D3000C1207727405120D99780C120C5E7808B1
:1024E300790C1205CDAA08AB09AC0AAD0B740D1219
:1024F3000D647F08020E11C292C280C2F989F9A24B
:10250300F950FC00000000D2920200FBC292D2807C
:10251300C2F989F9A2F950FC0000000080E9C082E9
:10252300C083C292D280ECF8EDF9E824FF1CE934B1
:10253300FFFDE8496014C2F98A828B83E0F5F9A3B1
:10254300AA82AB83A2F940DE80FA00000000D29297
:10255300D083D0820200FB74F7120DA58908EAFE2E
:10256300EBFF74FF2508C454F04480F91202B87CD1
:10257300107D00EEFAEFFB1202C480081202B8EEDF
:10258300F91202BE7F01020E11C082C08353F4FB15
:10259300D29243FE0453F3FED28043FD0179151218
:1025A30002B8790F1202DC790E1202B879251202F1
:1025B300B8791C1202B87A157B001203181202D6DE
:1025C3001202F479291202B802255374F7120DA5E9
:1025D30079801202B87E3079201202BE1EEE70F7A7
:1025E30080A274F7120DA5E9FE7950808F7910024D
:1025F30000FB74F6120DA5EA4B603178008A828BDA
:1026030083E06015C0E08808122669D0E0F08A8272
:102613008B83A3AA82AB838005880812267A08E8F5
:10262300C3941040D87A2B7B011202CA7F02020E98
:102633001174F7120DA5ECFEEDFFEA4B600579016D
:102643001202E8EE4F6009EEFAEFFB79021202E89C
:102653007409120D99E0FAA3E0FBEA4B60057903D4
:102663001202E802258712266D22742B2508F582B3
:1026730074013400F5832212266D7420F02274F75E
:10268300120DA579C01202B87E4079001202BE1E57
:10269300EE70F702258774F0120DA574F6120D4E35
:1026A3007406120D99EAF0A3EBF0A3ECF0A3EDF09E
:1026B3007406120D997808120C5E90071B780C12A1
:1026C3000C5E7808790C120581503A7406120D9944
:1026D3007808120C5E9006DF780C120C5E7808798D
:1026E3000C120506700B7A007B007C007D0002282B
:1026F3001F9005B17421F0A3E4F07AFF7BFF7C7F88
:102703007D7F02281F85108285118385820885833A
:10271300097808120F127408120D99120C7C120317
:102723004E7402120D647402120D99120C88740215
:10273300120D997808120C5E90071F780C120C5E2C
:102743007808790C120772900723780C120C5E78C4
:1027530008790C1205CD7402120D99780C120C5ED7
:10276300780C790812098C780C7908120772850C99
:1027730008850D09850E0A850F0B85108285118347
:10278300E0A2E050251475F00212036CFA900727BB
:10279300780C120C5E7808790C1205CDEAA2E713C7
:1027A300FAE413250AF50AEA801175F00212036CA4
:1027B300A2E713F8E413250AF50AE8350BF50B74C1
:1027C30002120D997808120C6D7402120D99780893
:1027D300120C5E9006FF780C120C5E7808790C12CE
:1027E30005CDC008C009C00AC00B7406120D997844
:1027F3000C120C5E7402120D997808120C5E780CA0
:10280300790812098CD00BD00AD009D0087808793E
:102813000C120772AA08AB09AC0AAD0B740A120DAD
:10282300647F08020E1174F0120DA574FB120D4E95
:102833007401120D99EAF0A3EBF0A3ECF0A3EDF011
:102843007A957B059006DF7808120C5E7401120DF1
:1028530099780812038E851082851183501C7401A8
:10286300F0120D997808120C5E7808120C4D740161
:10287300120D997808120C6D8002E4F07401120DA8
:1028830099780C120C5E9006EF7808120C5E780CA7
:102893007908120C0CE50824308A828B83F0A3AAF2
:1028A30082AB837401120D99780C120C5E9006EFC3
:1028B3007808120C5E780C7908120C0C7401120D56
:1028C30099780C120C6D7401120D997808120C5E34
:1028D300E5084509450A450B70A2851082851183D9
:1028E300E0A2E0500B8A828B83742DF0A30AAB83A2
:1028F3008A828B83E412293378957905801D8A8235
:102903008B83E0FC88828983E08A828B831229335C
:10291300EC88828983F0A3A882A983C3E89AE99B00
:1029230040DC7A957B057405120D647F08020E1155
:10293300F0EA24FF1AEB34FFFB227F08020E117426
:10294300A12508F58274053400F5837420F0227400
:10295300F0120DA574FE120D4E7401120D99E9F0DB
:102963008A0C8B0D8C0E8D0F7412120D99E0FF746F
:1029730013120D997808120C5E7417120D99E0FE6C
:102983001202E2E9851082851183F0EF9005A1F030
:10299300A3743DF0AA0CAB0DAC0EAD0F12033C8A31
:1029A3000C8B0DA80CA90D7A0288828983E0601232
:1029B300C0E08A0C74A1250C122A37D0E0122A40F9
:1029C30080098A0C74A1250C1229460AEAC39408CB
:1029D30040D7EE9005A9F0A3743DF0AA08AB09AC6B
:1029E3000AAD0B12033C8A088B09A808A9097A0AC5
:1029F30080068A081229420A851082851183E0FB2A
:102A0300EAC39B501588828983E060E6C0E08A08A8
:102A1300122A33D0E0122A4080DD7AA17B057401AB
:102A2300120D99E0F91202E87402120D6402293DB5
:102A330074A12508F58274053400F58322F0888299
:102A43008983A3A882A9832274F0120DA574FC12B2
:102A53000D4E851082851183EAF0A3EBF0A3ECF011
:102A6300A3EDF07414120D99E0FEA3E0FF8510822C
:102A7300851183780C120C5EEDC2E7F50F9006F317
:102A83007808120C5E780C7908120532851082855D
:102A930011835014120C7C8E828F83120C887A005F
:102AA3007B007C007D0080327808120C5E7808126F
:102AB300041B78081203A38E828F837808120C6D8F
:102AC300851082851183780C120C5E780C790812BC
:102AD300074DAA0CAB0DAC0EAD0F7404120D647F41
:102AE30008020E11C082C083E914600B14600C1439
:102AF300600D14600E8014D2908010D291800CD29D
:102B0300948008D28190013B7401F0D083D082027B
:102B130000FBC082C083E914600B14600C14600DC9
:102B230014600E8013C290800FC291800BC29480F8
:102B330007C28190013BE4F080D1C082C083E914D5
:102B4300600B14600D14600F146011801963900101
:102B53008014639002800F639010800A6380029058
:102B6300013BE06401F080A3C082C08379001202BC
:102B730094E96010790112028E7900120294E960DF
:102B83000312029A790012028ED083D0820200FBD4
:102B9300EBC313FBEA13FAEAF8EBF9E824FFFAE9CB
:102BA30034FFFBE849601300000000000000000050
:102BB300000000000000000080DD0200FB74F7123B
:102BC3000DA5EAFEEBFFEEF8EFF9E824FFFEE9348A
:102BD300FFFFE84960097AE87B0312031280E77F6D
:102BE30001020E11C082C08312030C43FE01C29086
:102BF30043FE02C29143FE10C29443FD02C28153BD
:102C0300F3FD53FDFD438F0253F5FE53FFFE43F7E0
:102C13000143F3401202A61202D01202B2D083D0B3
:102C2300820200FB43F102122C45E59E75FB807581
:102C3300F800A2E0E433240F4420F5FC75FA5302B4
:102C430000FB43F48043F44043F4202274F0120D5C
:102C5300A58A088B098C0A8D0B7410120D99E0F864
:102C6300A3E0F9E8FAE9FB9006DF780C120C5E7832
:102C730008790C120506700E8A828B83E4F0A3F0A8
:102C8300FAFBFCFD8022EC33ED332482F83395E02C
:102C9300F98A828B83E8F0A3E9F0AA08AB09ED5423
:102CA30080443FFDECC2E7FC7F08020E11E5C654E9
:102CB30080F853BEFBE59DA2E550FAE59DA2E240F4
:102CC300F4007401697007744948F5C68005E9701A
:102CD3000288C6E5C6F8E59E6870FB43BE040200A1
:102CE300FBE9F8E59EA2E640047901801AE8700545
:102CF30053C67F8008740168700343C680E5C6F934
:102D0300E59E6970FB79000200FBC082C0837900F5
:102D1300122D52A28150227800A2815004780079AA
:102D230000E8240108E93400F9C3E894F4E99401C4
:102D3300A2D265D03340E2790153F3FD90013BE029
:102D4300E0A2E0928143FD02D083D0820200FB53D4
:102D5300F3FD53FDFD438F0222C082C0837901122C
:102D63000306790212030679031203067904120398
:102D7300067A327B0012031880E374F4120DA5ED7A
:102D8300C2E77901FD1203607F04020E1174F4128D
:102D93000DA579001203607F04020E11D2AF020069
:012DA300FB34
:04000005000000E314
:00000001FF
