:020000040000FA
:030000000200E318
:03001300020F4990
:03003300020EF2C8
:03003B00020F763B
:03004B00020E138F
:03006B00020E2C56
:03007B00020E90E2
:10008300020DD800000080FB120113B90003020027
:10009300CDE4900101788179078002F0A3D8FCD9DF
:1000A300FA900781AA82AB839001167819790280AE
:1000B30015E493A3AC82AD838A828B83F0A3AA82D7
:1000C300AB838C828D83D8E9D9E77582C875831693
:1000D30074001200F575828675830074001200F5B2
:1000E30075D0007581BF751001751101759F0002F0
:1000F300008BC09FF59FE473D09F22D083D082C032
:100103009FE493C0E0740193C0E0740293F59F22CF
:100113007901225472616E736D6974746572002083
:100123005265616420004C6F6164205369676E619E
:1001330074757265005468652077617665666F72C1
:100143006D20697300556E7265636F676E697A61BE
:10015300626C65005369676E616C00412046616E95
:10016300005175616E746974792031005175616E47
:100173007469747920320048502D4C6170746F702B
:10018300004C616D7000200052656672696467659A
:100193007261746F7200546F6173746572004D6F96
:1001A3006E69746F72005072696E74657200546F79
:1001B30061737465722B46726964676500485020E9
:1001C3002B2046616E004D6F6E69746F722B4C610C
:1001D3006D7000FF00000000000000000000000040
:1001E300007A446666663FCDCCCC3DD80FC94080CB
:1001F30096184B0000000083F9223F01FC7F470063
:1002030000803E00008040FBD71E39652699BB580D
:1002130034A33DE15D25BFDB0FC93F01000000C5ED
:1002230003423F1A51123FF304B53F1200FEB10FD0
:10023300001200FE9C10001200FE1B11001200FEB3
:100243005C12001200FE6A12001200FE721200120B
:1002530000FEA612001200FECF12001200FEFC12D6
:10026300001200FE2313001200FE4713001200FECB
:100273005F13001200FE6F13001200FE7F130012C3
:1002830000FE9413001200FEA613001200FEDF13FB
:10029300001200FE0414001200FE5B14001200FEA4
:1002A3007214001200FEBE14001200FEF3140012BA
:1002B30000FE1415001200FE8715001200FEB11592
:1002C300001200FEE015001200FE4316001200FEAD
:1002D300B719001200FE9A1B001200FE661F0012DF
:1002E30000FEB223001200FE3525001200FE083086
:1002F300001200FEA72F001200FE0B2F001200FEBB
:100303001B30001200FEDE2A001200FE7B2D00A22D
:10031300E792D65002F40430F70663F0FF05F0B31A
:10032300400384800384F40430D60563F0FF05F0B2
:1003330022080808E630E711120B0312034C0808E1
:1003430008C64480C618181822181818E9799EC6DA
:1003530008CAC608CBC608CCC6C370207996CACBD8
:10036300CC7019798ECBCC70137986CC700EF98052
:100373002ACA33CACB33CBCC33CC331930E7F2CCD4
:10038300CBCA3350147004EA30E00DE4CA3ACACB46
:100393003BCBCC3CCC500209C3E913C6CC18231386
:1003A300C6CB18C6CA18C6F9221203EC20F01430C3
:1003B300E72B74FFFCFBFA747F8022E4FCFBFA74E6
:1003C30080801AB48008BC00F2BB00EF800F50EBB2
:1003D300F9E4C39AFAE49BFBE49CFCE499C6CC18C9
:1003E300C6CB18C6CA18C6F922E4C9C608CAC608C5
:1003F300CBC6D3330308CCC63392F0C3947F402ECD
:1004030094184019C9B90704CACBCC225025C30993
:10041300CA33CACB33CBCC33CC33D9F422F4600DFB
:10042300C9CCC313CB13CBCA13CAD9F6CC22E4FC71
:10043300FBFA2214FCFBFA22E6C3331846184618CB
:100443004622E7C33319471947194722181818E6F4
:10045300084608700AE608C3337005E633F4220839
:1004630022191919E7094709700AE709C333700507
:10047300E733F4220922E6084608C313460833602B
:1004830002E633F422E7094709C31347093360023D
:10049300E733F422120479602512048860201204E1
:1004A3003B7003020445080808E76670101819E753
:1004B30066700A1819E76670041819E76622F422B1
:1004C300120479601C120488601712043B7007122F
:1004D30004457001D322C0D01204457006D0D0B3B6
:1004E30022C32233D0D0501430E0F6C3E796080974
:1004F300E7960809E7960809E796B32220E0D5E6D0
:10050300970809E6970809E6970809E697B32212C0
:100513000479601B120488601612043B70071204EE
:1005230045600CB322C0D01204457005D0D022C35D
:100533002233D0D0501330E0EBC3E7960809E79697
:100543000809E7960809E7962220E0E4E6970809F8
:10055300E6970809E6970809E697220012047960EE
:100563004F1204886012E7548066F612044F70112C
:10057300120445703B090909F4F618F618F618F643
:1005830022120464701512043B08080860EAE6446A
:100593007FF618768018E4F618F62212043B6016EC
:1005A3001204457012E4F608F608F608E65480F6DD
:1005B30009090918181822EAC0E0EBC0E0ECC0E012
:1005C300EDC0E0E687F0A4FBACF008E687F0A42CCE
:1005D300FCE435F0FA1809E687F0A42C4B600274AA
:1005E30001CA35F0FCE433FB09E687F0D2F7A42C0B
:1005F300CB35F0FC1908E687F0A42BCC35F0FBE4EF
:1006030033FD0819E687F0D2E7A42C4ACB35F0CDA9
:100613003400FC09E687F0D2E7A42DCC35F0FDE4E5
:1006230033FA0918E687F0D2F7A42CCD35F0CA3493
:1006330000FC08E687F0D2E7D2F7A42ACC35F07A9B
:100643007E20E70B0ACB33CBCD33CDCC33CC33CBAE
:100653003350147004ED30E00ED2F1E4CD3DCDCC37
:100663003CCC3B5005DA05C2F1EB547FC63308E6B8
:100673003392F0FBE73309E733C39A502D2B7019FC
:100683000C0D4C4D70151806E608C333700D20F1A0
:100693000AA2F013F6E418800B4024E4F630F002CB
:1006A300768018F618F618F68024D33B145010748D
:1006B300FFA2F013F6187680E418F618F6800FA25E
:1006C300F013F618E63303F618ECF618EDF6D0E05F
:1006D300FDD0E0FCD0E0FBD0E0FA221204886046B3
:1006E300120479603DE9687008F618F618F618F6F2
:1006F30022748067F7120712090909748067F722C9
:10070300120479601D1204887005191919801A12D0
:10071300044F701F120464C37003E6673319191979
:1007230040071818182208080874FFF618F618F678
:1007330018F6221204646017120445702192F01215
:10074300043B7019501720F014080808090909E739
:10075300F61819E7F61819E7F61819E7F62212043E
:100763003B60E6E869701F0808E62480F608E43673
:10077300F618547FB47F0CE654806007F6E418F64D
:1007830018F622181822E9C6CC08C6CD08C6CE082A
:10079300C6CFC0E0E8C0E0EAC0E0EBC0E009E9F89A
:1007A30009E7FA09E7FBE6F918E6F8C3EC98ED99CF
:1007B300EE9AEBC2E7F5F0EFC2E795F0500E600C4E
:1007C300EBCFFBEACEFAE9CDF9E8CCF8EAA2E7D21F
:1007D300E7FAEB33FB13F5F0EEA2E7D2E7FEEF33D4
:1007E300FFC5F013A2E730E601B313C5F0C3C0E0C1
:1007F300C0F07F00C39BFB605E9418600F401D1424
:10080300601AD0E023F9D0E0F80208E48AF0E9485E
:100813006003D2F0E4AFF0FAF9F8803BEB30E40D7B
:1008230089F0EA6003D2F0E4AFF0F9CAF8EB30E301
:100833000D88F0EF6002D2F0AFF0E4CAC9F8EB54D0
:10084300076014FBC3EA13FAE913F9E813F8EF138B
:100853005002D2E0FFDBEDD0E0C0E030E739C3E483
:100863009FFFF5F0EC98FC42F0ED99FD42F0EE9A13
:10087300FE42F0D0E0F9D0E0F8E5F0607AE923F940
:10088300EE20E742D8028067C3EF33FFEC33FCED81
:1008930033FDEE33FE80EAEC28FCED39FDEE3AFE43
:1008A300D0E023F9D0E0F84002801BC3EE13FEED45
:1008B30013FDEC13FCEF135002D2E0FF08B800065F
:1008C3007F7F74FF802EEF3350178CF020F002608F
:1008D300100CBC000C0DBD00080EBE000408E8603F
:1008E300DFE933E813FFEE2313FE4F4D4C8008E995
:1008F3005480FFE4FEFDFCEE33EF33F47004FCFDA3
:100903007E80D0E0FBD0E0FAD0E0F8D0E0CFC6188C
:10091300CEC618CDC618CCC6F922120479700418B5
:10092300181822120488700D74FFF61819F6181996
:10093300F61819F622E7548066F612043B700F127C
:10094300044570F014F608F608F608F680D1120490
:1009530045700CF608F608768008E6447F80EC12B2
:100963000467700C12045260BFE65480F6E480BB47
:10097300120452700519191980A5E869700C763FA5
:1009830018768018F618F6E8F922E6CDC0E018ECE0
:10099300C0E0E633CD33CDD313F6E719FCE71919DD
:1009A30033CC33C3947F400ECD9D502408E654804E
:1009B300F6E418F6800FF4043D14501408E6447F5F
:1009C300F6187680E418F618F6D0E0FCD0E0FD22A5
:1009D300CCD313CCFD18E4C6CBC0E018E4C6CAC020
:1009E300E00808ED08C633E613F618E433C675F0DD
:1009F30003C3CA97CA09CB97CB199C40047D0880CF
:100A03002EBD0003020AC616B6FF05060608161811
:100A1300C3CA33CACB33CB33CA27CA09CB37CB19A3
:100A23003CC37D08803E187D0820E75CC633C6CAF8
:100A330033CACB33CB33DDF1D5F0EB30E77BCA9749
:100A4300CA09CB974ACB199C406F4B7025E620E02F
:100A5300218066187D08C3CA97CA09CB97CB199C16
:100A6300D3C633C6CA33CACB33CB3350C9DDE7D57C
:100A7300F0E1D3E4C636C608C636C608C636C6088D
:100A8300C636C61818188031C3CA97CA09CB97CB84
:100A9300199CB34097C633C6CA33CACB33CB33DDB5
:100AA30034D5F02EC6A2E0C640C8CA27CA09CB3740
:100AB300194A70BECB3CB480B90808E63308E63364
:100AC300601F181818D0E0FAD0E0FBD0E0FCD0E0AB
:100AD300FD22187D08CA27CA09CB37CB193CD3801E
:100AE3008013F618E4B67F11F618B6FF0EF618C693
:100AF3000470D20808768080CAF618F618F680C506
:100B0300181818E4C396F608E496F608E496F6086F
:100B1300E496F622E0F608A3E0F608A3E0F608A3BD
:100B2300E0F622E6F008A3E6F008A3E6F008A3E661
:100B3300F022E0FAA3E0FBA3E0FCA3E0FD22EAF04D
:100B4300A3EBF0A3ECF0A3EDF022CAC0E0E6F0A320
:100B530008DAFAD0E0FA22C3E498F8E499F9120B20
:100B63009B8026C3E49AFAE49BFBE920E7E9120B96
:100B73009BE498F8E499F922C3E498F8E499F9120C
:100B83000B9BE498F8E499F9C3E49AFAE49BFB22FB
:100B9300EB20E7CFE920E7E0B90010BB0008E88AC3
:100BA300F084F8AAF022E4FBC8FA22EB70227B104F
:100BB300C833C8C933C9335007C39AC3DBF28006AD
:100BC3009A50012ADBEAC833F4C8C933F4C9FA22BC
:100BD30075F008E4C833C8C933C933C99AC99B50EF
:100BE30004C92AC93BD5F0ECFBC833F4C8E4C9FAFD
:100BF30022700422600D18C6C333C608C633C6D597
:100C0300E0F41822251010AF08F5104002151180EA
:100C130008F51040021511D2AF22C0D0251010AF35
:100C230008F510500205118008F51050020511D285
:100C3300AFD0D0222510F58210AF08F51040021571
:100C4300118008F51040021511D2AF8511832225BA
:100C530010F582E43511F58322E4732510C582C0B3
:100C6300E0E51134FFC583C0E0E510C3958224F8A5
:100C730010AF0885831185821080088583118582D2
:100C830010D2AFCEF0A3E520F0A37808E608F0A3D6
:100C9300DEFAEFF0A3E58124FAF8E608F0A3E6080C
:100CA300F0A3E608F0A30808E608F0A3E608F0A31B
:100CB30015811581D0E0FED0E0F8158115811581ED
:100CC300E8C0E0EEC0E022851183851082E0A3FE38
:100CD300E0A3F5207808E0A3F608DFFAE0A3FFE03D
:100CE300A3C0E0E0A3C0E0E0A3C0E0E0A3C0E0E075
:100CF300A3C0E010AF088582108583118008858228
:100D030010858311D2AFD083D0820200FBC0D025DF
:100D130010C582C0E0E51134FFC583C0E0E510C310
:100D2300958224F310AF088583118582108008858E
:100D33008311858210D2AFC8F0A3E9F0A3EAF0A330
:100D4300EBF0A37908E709F0A3D8FAECF0A3EDF0F0
:100D5300A3EEF0A3EFF0A3D0E0F0A3D0E0F0A3D094
:100D6300E0F0A3E520F0A3E5F0F0A322851183854D
:100D73001082E0C0E0A3E0F9A3E0FAA3E0FBA378CC
:100D830008E0F608A3DFFAE0FCA3E0FDA3E0FEA37E
:100D9300E0FFA3E0C0E0A3E0C0E0A3E0F5D0A3E060
:100DA300F520A3E0A3F5F010AF0885831185821029
:100DB3008008858311858210D2AFD082D083D0E0A2
:100DC300F8D0E03274028000C0E0F404120C37D093
:100DD300E0120B4D22C0E074F2120D10A2AFE43307
:100DE300FEC2AFE5E9A2E650169001FD120E88603F
:100DF30008E0F5838882120C5C759B0053E9BFEE13
:100E0300A2E092AF80057401120C1D7F01020D6FE9
:100E1300C0E074F2120D109001FF120E886008E01A
:100E2300F5838882120C5C80E2C0E074F1120D102D
:100E3300C2C5E58960477E00750801750900EE7833
:100E430008120BF4AF08E5895F602BEEC333F8E4B7
:100E530033F9741128F5827402120E856014EEC3FF
:100E630033F8E433F9741128F5827402120EE61292
:100E73000C5CEFF452890EEEC3940840BB7F020270
:100E83000D6F39F583E0F8A3E0F9E84922C0E07477
:100E9300F1120D10C2EBE58A60477E0075080175FB
:100EA3000900EE7808120BF4AF08E58A5F602BEEB9
:100EB300C333F8E433F9742128F5827402120E85E2
:100EC3006014EEC333F8E433F9742128F582740215
:100ED300120EE6120C5CEFF4528A0EEEC394084035
:100EE300BB809A39F583E0F8A3E0F583888222C0BA
:100EF300E074F1120D10C2E8E58B60477E007508BF
:100F030001750900EE7808120BF4AF08E58B5F60FA
:100F13002BEEC333F8E433F9743128F582740212EB
:100F23000E856014EEC333F8E433F9743128F58287
:100F33007402120EE6120C5CEFF4528B0EEEC394A5
:100F43000540BB020E80C0E074F2120D1074FF1254
:100F53000C07C28BE5C1851082851183F0E58654A9
:100F630018700D7901AC82AD837AF97B061202C445
:100F7300020E09C0E074F2120D1074FF120C07C2C6
:100F8300E97901851082851183AC82AD837A3C7B3C
:100F9300071202CAE964017009851082851183E092
:100FA300F5C190077CE07003539AFB020E09C082DF
:100FB300C083120270D2AF79017A7D7B0112026A7B
:100FC30090017DE0C2E7F06405703F79057A7E7B8E
:100FD3000112026A90017EE0A2E55004D2F0800281
:100FE300C2F0A2F0E433900849F0900182E0A2E756
:100FF3004003021094900180E0F8900101E06860E2
:1010030003021094A37401021093E024F5900846A0
:10101300F090017DE0F97A7E7B0112026A90017EF5
:10102300E0A2E55004D2F08002C2F0A2F0E43390D3
:101033000849F090018512123D9008421219A790B9
:1010430008477487F0A37401F0900846E0F83395DD
:10105300E0F9748728F8740139F988828983E0906C
:10106300084AF088828983A3E0A2E7501C900841D4
:10107300E0F8900180E068601090017EE054DF6446
:1010830041700690084B7401F0900180E090084194
:10109300F0C2AF1202760213D874F7120C5EEAFEA6
:1010A300EBFF120264E96401700479018067C2AF47
:1010B300900108EEF0A3EFF0900847E4F0A3F0905E
:1010C3000103041224D8F075F005121221A3A3A37F
:1010D300A3E0A424D490618FF0900109E0F5838804
:1010E3008212123DE8906174F0E9A3F0900108E0E8
:1010F300F8A3121241E8906172F0E9A3F0E5A8F8B1
:10110300C2AF9001FD742EF0A37402F0E8A2E7923F
:10111300AFD2AF790002145674F5120C5EEAFEEBFF
:10112300FF8C088D09890A900103E0700675E1ECD4
:1011330075E1E3E9C394674003750A67906193E03F
:10114300542270F8120270740B250A90010AF012EF
:10115300125290010B6004746180027441F0A37415
:1011630088F0900101E090010DF090010912124105
:1011730090010E1219A7A3EEF0A3EFF012122112A1
:10118300123D9001121219A77A00801F8A82A88249
:10119300E50828F582E5091216C3E0C0E0741428B7
:1011A300F58274011216C3D0E0F00AEAC3950A402F
:1011B300DB740A250AF975E1EE7591FD780080115B
:1011C3008808740A2508F58274011216C3E0F5D95C
:1011D30008E8C39940EA12027675E1E9E591A2E1D4
:1011E30050FA7591FD1212526016900102E4F07AE2
:1011F3004A7B02120258900102E0700479018002D6
:101203007900900103E0700675E1EF75E1ECE9A266
:10121300E04006900101E004F07F03020CCA1212C1
:101223002522900108E0F8A3E0F583888222744C1C
:101233002508F87406122AAAF58312124C22E0F547
:10124300838882A3A312124C22E0F8A3E0F92212AE
:101253001225A3A3A3A3A3E022E5A8C2AFA2E7E4B8
:1012630033FA7B000200FBEAA2E092AF0200FBE547
:10127300C65480F853BEFBE59DA2E550FAE59DA256
:10128300E240F4007401697007744948F5C68005AB
:10129300E9700288C6E5C6F8E59E6870FB43BE04A4
:1012A3000200FBE9F8E59EA2E640047901801AE812
:1012B300700553C67F8008740168700343C680E5D8
:1012C300C6F9E59E6970FB79000200FBEBC313FBD3
:1012D300EA13FAEAF8EBF9E824FFFAE934FFFBE84A
:1012E300496013000000000000000000000000003F
:1012F3000000000080DD0200FB74F7120C5EEAFEC2
:10130300EBFFEEF8EFF9E824FFFEE934FFFFE849CD
:1013130060097AE87B0312025880E77F01020CCA56
:10132300C082C083906189E04460F09061FA7409DF
:10133300F09061B27415F09061AEE4F01202767928
:10134300000213D8C082C083800DE5D98A828B83C3
:10135300F0A3AA82AB8319E970F08079C082C083BD
:101363009061A3E0C2E6F0539AFE8069C082C08315
:101373009061A3E0D2E6F0439A018059C292C28001
:10138300C2F989F9A2F950FC00000000D2920200D0
:10139300FBC292D280C2F989F9A2F950FC00000085
:1013A3000080E9C082C083C292D280ECF8EDF9E8F4
:1013B30024FF1CE934FFFDE8496014C2F98A828BDB
:1013C30083E0F5F9A3AA82AB83A2F940DE80FA0099
:1013D300000000D292D083D0820200FB74F7120C7B
:1013E3005E8908EAFEEBFF74FF2508C454F04480CD
:1013F300F912027C7C107D00EEFAEFFB120288806A
:101403005274F7120C5E53F4FBD29243FE0453F36F
:10141300FED28043FD01791512027C795012027CC1
:10142300790F120282790E12027C792512027C79DD
:101433001C12027C7A157B0012025E12029A79C09A
:1014430012027C7E4079001202821EEE70F7792927
:1014530012027C7F01020CCA74F7120C5E798012AF
:10146300027C7E3079201202821EEE70F780E474D3
:10147300F6120C5EEA4B603078008A828B83E06060
:1014830013C0E01214B0D0E0F08A828B83A3AA8247
:10149300AB8380061214B07420F008E8C3941040A4
:1014A300D97A017B0212028E7F02020CCA88087469
:1014B300012508F58274021216C32274F7120C5E1A
:1014C300ECFEEDFFEA4B600579011202A0EE4F60DE
:1014D30009EEFAEFFB79021202A07409120C52E032
:1014E300FAA3E0FBEA4B600579031202A00214564B
:1014F300C082C08379011202BE79021202BE79034F
:101503001202BE79041202BE7A327B0012025E809E
:10151300E3C082C0837900120252E960107901129C
:10152300024C7900120252E960031202AC790012F4
:10153300024C43FE01C29043FE02C29143FE10C21D
:101543009443FD02C28153F3FD53FDFD438F0253C8
:10155300F5FE53FFFE43F70143F34043F10243F427
:101563008043F44043F420E59E75FB8075F800A2A8
:10157300E0E433240F4420F5FC75FA53120294D2AD
:10158300AF0213D8C082C083E914600B14600C143B
:10159300600D14600E8014D2908010D291800CD212
:1015A300948008D28190023B7401F00213D8C08268
:1015B300C083E914600B14600D14600F1460118074
:1015C300196390018014639002800F639010800A66
:1015D30063800290023BE06401F00213D874F212BC
:1015E3000C5EEAFEEBFF8C0C8D0D89091202401292
:1015F300169185090A250AF8E43400F9E89440E9CC
:101603009400C365D033750800502B801B2442F827
:10161300EF3400F9121699E0C0E01216B4D0E012CC
:1016230016A87002E4F00508E508C39509EE40DD4D
:101633001216922508F0120246A9087F06020CCA68
:1016430074F2120C5EEAFEEBFF8C0C8D0D8909120D
:101653000240750800801CEE2441F8EF3400F912B3
:1016630016B4E0C0E0121699D0E01216A87002E496
:10167300F00508E508C39509500A121691F8E50824
:10168300C39840D3A808121691C398F080A8EE24FB
:10169300401216C0E02285080AE50C250AF582E50A
:1016A3000D1216C322F088828983E004F0E06440BF
:1016B3002288828983E0FCEE2C1216C022F582EF89
:1016C3003400F583229006F57407F0A37420F0A389
:1016D3007419F0A37401F01202B2120264E96401F6
:1016E30070031202AC79011202B812029A1202E2DA
:1016F3007508947509077808120DC77C8D7D077AE4
:10170300817B071202A67402120C1D90063DE4F0C1
:10171300A3F090063FF0A3F0900641F0A3F09006EB
:1017230043F0A3F0900645F0A3F0900647F0A3F032
:10173300F8F9E8FAE9FBEAC333FAEB33FB74EA2A74
:10174300F58274063BF583E4F0A3F0121990E89454
:1017530004E9122A9540DB7E007F0043F2407901C1
:101763001202B8C28D75B696A28D50FCE5BB547FAC
:1017730090023CF0C29053F2BFFAEEF8EFF9E8C3DF
:1017830033F8E933F9743D28F582740239F583EAB5
:10179300F0A3E4F07AA0FB12025812199A40BC7E1F
:1017A300007F00EEF8EFF9E8C333F8E933F9743D4D
:1017B30028F8740239F9880889098882121B76ECA3
:1017C300F8EDF97A277B00120B93E8C39CF50AE93D
:1017D3009DF50BE50A75F064A4F50AA8F075F064AD
:1017E300E50BA428F50BEC75F064A4FCA8F075F0E8
:1017F30064EDA428FDECF8EDF97A277B00120B9336
:10180300880C890DE50A250CF8E50B350DF9E8245C
:1018130029F8E93418F98508828509831219A71272
:10182300199A50030217A67CE07DB1780079001263
:101833001974E0FAA3E0FBC3EC9AED9BA2D265D046
:10184300335003121B6312198A40E490063DECF0F7
:10185300A3EDF07C207D4E78007900121974C3E06B
:101863009CA3E09DA2D265D0335003121B631219CF
:101873008A40E890063FECF0A3ED1219AD1202D0B6
:10188300900643EAF0A3EBF090063DC08290063F3A
:1018930012123D758306D082E0C398F8A3E099F94C
:1018A300900641E8F0A3E91219AD1202D68A088B1B
:1018B300098C0A8D0B90084D780C120B1778087958
:1018C3000C12055E78081203AC900645E508F0A3F8
:1018D300E5091219AD1202DC8A088B098C0A8D0BFB
:1018E30090084D780C120B177808790C12055E7866
:1018F300081203AC900647E508F0A3E509F090064B
:101903004312123D9006EA1219A790064512123DA2
:101913009006EC1219A790064712123D9006EE129C
:1019230019A790064112123D9006F01219A77AEA00
:101933007B061202E8900649E09006F2F09006F367
:101943007420F0A37425F07AF37B06120234E96461
:101953000170031202AC900103E4F075E1EF75E14D
:10196300EC79017CF27D067AEA7BBE12023A021719
:101973000EE8FAE9FBEAC333FAEB33FB743D2AF5CD
:101983008274023BF58322121990940222E8240107
:1019930008E93400F9C322121B4BFFC39402A2D2FD
:1019A30065D03322E8F0A3E9F022F07C007D027ACF
:1019B3003D7B022274F0120C5E74FA120C0774045D
:1019C300120C52EAF0A3EBF07A007B0085108285BB
:1019D3001183E4F0A3F07402120C527401F0A3E437
:1019E300F07C007D007402120C52E0FEA3E0FFEED7
:1019F30075F053A4FEA8F075F053EFA4288045EECC
:101A0300F8EFF9E8C333F8E933F97404120C52120E
:101A13002AD5C3EC98ED122ACE5026EEF8EFF9E85A
:101A2300C333F8E933F97404120C52E028FCA3E041
:101A3300398C82121B76851082851183EEF0A3EF19
:101A4300F0121B4BFF7402120C52E02401F8A3E0C6
:101A53003400F9E875F053A4F885F00875F053E9FC
:101A6300A42508F9C3EE98EF994094121B7E120C3B
:101A730052E028FEA3E0398E82121B91120334C078
:101A830008C009C00AC00B8C08ED121F50120334A2
:101A9300900851780C120B177808790C12055ED058
:101AA3000FD00ED00DD00C780C790812051240031C
:101AB300021B457E01121B7E120C52122AB6121B08
:101AC30091120334C008C009C00AC00B8C08ED1280
:101AD3001F50120334900855780C120B17780879AD
:101AE3000C12055ED00FD00ED00DD00C780C7908F7
:101AF30012051250027E00121B53EA24010AEB3432
:101B030000FBEEA2E040AE7402120C52121F6012F0
:101B13000C52C3E09404A3E0940050030219E4EAD6
:101B230075F0C8A4FAA8F075F0C8EBA428FBEAF88E
:101B3300EBF97A037B00120B93E8FAE9FB740602D4
:101B43001F45121B53021A6EEE24010EEF340022BE
:101B5300851082851183E024FFF0A3E034FFF02297
:101B6300E8FAE9FBEAC333FAEB33FB743D2AF58267
:101B730074023BF583E0FCA3E0FD2285108285110E
:101B83008312124CE8C333F8E933F9740422F58362
:101B9300122367121F562274F0120C5E74E0120CAB
:101BA300077412120C52EAF0A3EBF0740C120C52ED
:101BB300ECF0A3EDF07408120C52122319120C521C
:101BC300122300120C521222FA120C5212230C7E10
:101BD300007F00021CD7740C120C5212235C1203F8
:101BE3004F7414120C527808120B26121F4D120355
:101BF30034900859780C120B177808790C12055E8B
:101C030012236F1203347808790C12055E741412D0
:101C13000C52780C120B177808790C12091D740EEC
:101C2300120C527808120B26740E120C52120B353A
:101C33001202EE8A088B098C0A8D0BEEF8EFF9E895
:101C4300C333F8E933F97412120C5212231F120C26
:101C5300521219A77402120C5212239A12033478E7
:101C63000C790812055E7408120C527808120B17CF
:101C7300780C79081207037408120C52780C120BB3
:101C830026740E120C52120B351203008A088B09AC
:101C93008C0A8D0B7404120C52780C120B17C00CA7
:101CA300C00DC00EC00F7402120C5212239A1203FD
:101CB30034780C790812055ED00BD00AD009D0080D
:101CC3007808790C1206DE7404120C527808120B91
:101CD300261222EF740C120C521223295003021BFA
:101CE300D97408120C527808120B177408120C528C
:101CF300780C120B177808790C12055EC008C0091E
:101D0300C00AC00B7404120C52780C120B17740423
:101D1300120C527808120B17780C790812055ED052
:101D23000BD00AD009D0087808790C120703AA0847
:101D3300AB09AC0AAD0B12030C8A088B098C0A8D14
:101D43000B741C120C52780C120B17780C790812B6
:101D53000512500A741C120C527808120B267408D0
:101D6300120C52122319120C521223325003021B6B
:101D7300D27402120C52E4F0A3F07E007F00021E24
:101D830077740C120C5212235C12034F7414120C4E
:101D9300527808120B26121F4D12033490085978FB
:101DA3000C120B177808790C12055E7402120C5290
:101DB300E024111223781203347808790C12055E9B
:101DC3007414120C52780C120B177808790C120940
:101DD3001D740E120C527808120B26740E120C523C
:101DE300120B351202EE8A088B098C0A8D0BEEF862
:101DF300EFF9E8C333F8E933F97412120C521223E2
:101E030082120334780C790812055E7408120C529E
:101E13007808120B17780C79081207037408120C50
:101E230052780C120B26740E120C52120B3512033D
:101E3300008A088B098C0A8D0B7404120C52780CDF
:101E4300120B17C00CC00DC00EC00F122394120347
:101E530034780C790812055ED00BD00AD009D0086B
:101E63007808790C1206DE7404120C527808120BEF
:101E7300261222EF740C120C521223295003021D56
:101E8300847408120C527808120B177408120C523F
:101E9300780C120B177808790C12055EC008C0097C
:101EA300C00AC00B7404120C52780C120B17740482
:101EB300120C527808120B17780C790812055ED0B1
:101EC3000BD00AD009D0087808790C120703AA08A6
:101ED300AB09AC0AAD0B12030C8A088B098C0A8D73
:101EE3000B7418120C52780C120B17780C79081219
:101EF3000512500A7418120C527808120B26740833
:101F0300120C52122319120C521222F4120C5212F6
:101F13001F60120C5212233E5003021D7D741812CF
:101F23000C527808120B17741C120C52780C120BFB
:101F3300177808790C12091DAA08AB09AC0AAD0B76
:101F43007420120C1D7F08020CCA8E08EFF50912CB
:101F53001F56223395E0F50AF50B78082212235217
:101F630074022274F0120C5E74E0120C07741212E5
:101F73000C52EAF0A3EBF0740C120C52ECF0A3ED4C
:101F8300F07408120C52122319120C52122300126D
:101F93000C521222FA120C5212230C7E007F000202
:101FA30020A3740C120C5212235C12034F741412EC
:101FB3000C527808120B26121F4D12033490085945
:101FC300780C120B177808790C12055E12236F1226
:101FD30003347808790C12055E7414120C52780CD1
:101FE300120B177808790C12091D740E120C527813
:101FF30008120B26740E120C52120B351202EE8AC3
:10200300088B098C0A8D0BEEF8EFF9E8C333F8E976
:1020130033F97412120C5212231F120C521219A705
:102023007402120C5212239A120334780C79081298
:10203300055E7408120C527808120B17780C790895
:102043001207037408120C52780C120B26740E122A
:102053000C52120B351203008A088B098C0A8D0B64
:102063007404120C52780C120B17C00CC00DC00E66
:10207300C00F7402120C5212239A120334780C7993
:102083000812055ED00BD00AD009D0087808790C65
:102093001206DE7404120C527808120B261222EF79
:1020A300740C120C521223295003021FA574081238
:1020B3000C527808120B177408120C52780C120B7E
:1020C300177808790C12055EC008C009C00AC00B56
:1020D3007404120C52780C120B177404120C5278FD
:1020E30008120B17780C790812055ED00BD00AD0B2
:1020F30009D0087808790C120703AA08AB09AC0ABF
:10210300AD0B12030C8A088B098C0A8D0B741C12FD
:102113000C52780C120B17780C7908120512500A1E
:10212300741C120C527808120B267408120C5212EB
:102133002319120C521223325003021F9E740212EF
:102143000C52E4F0A3F07E007F00022243740C12D1
:102153000C5212235C12034F7414120C527808129F
:102163000B26121F4D120334900859780C120B17CB
:102173007808790C12055E7402120C52E0241E12C8
:1021830023781203347808790C12055E7414120C48
:1021930052780C120B177808790C12091D740E1261
:1021A3000C527808120B26740E120C52120B3512B5
:1021B30002EE8A088B098C0A8D0BEEF8EFF9E8C35F
:1021C30033F8E933F97412120C52122382120334D6
:1021D300780C790812055E7408120C527808120BF9
:1021E30017780C79081207037408120C52780C1232
:1021F3000B26740E120C52120B351203008A088B35
:10220300098C0A8D0B7404120C52780C120B17C034
:102213000CC00DC00EC00F122394120334780C7936
:102223000812055ED00BD00AD009D0087808790CC3
:102233001206DE7404120C527808120B261222EFD7
:10224300740C120C521223295003022150740812E9
:102253000C527808120B177408120C52780C120BDC
:10226300177808790C12055EC008C009C00AC00BB4
:102273007404120C52780C120B177404120C52785B
:1022830008120B17780C790812055ED00BD00AD010
:1022930009D0087808790C120703AA08AB09AC0A1D
:1022A300AD0B12030C8A088B098C0A8D0B74181260
:1022B3000C52780C120B17780C7908120512500A7D
:1022C3007418120C527808120B267408120C52124E
:1022D3002319120C521222F4120C52121F60120C08
:1022E3005212233E5003022149021F20121B4BFFAF
:1022F30022122306740222122306741822122306C2
:10230300741C22E41224D1F0221223068510828544
:102313001183F0A3F022122306740422E028F8A309
:10232300E039F974022212124CC3EE98EF9922128B
:10233300230612234C851082851183C3E09403A3E3
:10234300E09400A2D265D03322851082851183E008
:102353002401F0A3E03400F022122367E4F50AF528
:102363000B780822E0F508A3E0F5092285108285A1
:102373001183E02405F50CA3E034001223A622E028
:1023830028F8A3E039F9851082851183E8F0A3E9E1
:10239300F0851082851183121228E0F50CA3E01258
:1023A30023A622F50D3395E0F50EF50F780C22C028
:1023B30082C08390064A7408F0A3141224A912243D
:1023C300BD743C1224D8743C1224C374C0F0A374AB
:1023D30012F0A374A8F0A374161224BD74F412248B
:1023E300F27426F0A374021224B2745E1224F274FF
:1023F300BCF0A374021224E074D4F0A3743012244A
:10240300BD7470F0A37417F0A3742C1224F274F447
:102413001224F274B41224EB7440F0A37406F0A3F4
:10242300749812251874E8F0A3740312250D74141C
:10243300F0A374051224B274B0F0A374041224E060
:1024430074B0F0A374361224C31224F9745E1224F8
:10245300F27458F0A37402F0A374B0F0A37404F000
:10246300A374341225181224C91224C9F0A3122408
:10247300EEE4F0A3F0A374C81224D874C8F0A3E464
:102483001224E074C8F0A374321224A91224F9743C
:10249300641224EB74D0F0A37407F0A374C4F0A304
:1024A3007409F00213D8F0A374B8F0A3740B22F0EC
:1024B300A37420F0A37403F0A3221224C3F0A32275
:1024C300F0A3E4F0A322122307A31224D122F0A342
:1024D300F0A3F0A3221224C3F0A3F0A322F0A37469
:1024E300F8F0A3742AF0A322F0A3E4F0A37490F00D
:1024F300A37401F0A322F0A37440F0A3741FF0A30C
:1025030074F4F0A3740112250D22F0A374BCF0A39C
:102513007402F0A322F0A37408F0A3E41225261298
:1025230025262212252F12252FF0A3221224D1F0C3
:10253300A32274F0120C5E74FC120C077402120CCA
:1025430052EAF0A3EBF0750E00750CFF750DFF7AE0
:10255300017C007D00851082851183E4F0A3F0FEE9
:10256300FF8E0A8F0B7402780A120BF48C088D0904
:1025730074047808120BF4122A9DC082C083EEF80B
:10258300EFF9E8C333F8E933F97402120C52122A53
:10259300D5D083D082122AC55046EEF8EFF9E8C3AE
:1025A30033F8E933F97402120C52E028A3E03985B9
:1025B3000882F583C082C0838C0A8D0B7404780A69
:1025C300120BF48E088F0974027808120BF412129E
:1025D30031D083D082122AC5500612234C0226948E
:1025E300851082851183E064037002A3E060030217
:1025F30026948E0A8F0B7402780A120BF48C088DC2
:102603000974047808120BF4122A9D122367E50853
:10261300C333F508E50933F509EEF8EFF9E8C333F9
:10262300F8E933F97402120C52E028F50AA3E039F1
:10263300850A8212123BC3E50898E509122ACE5097
:1026430050EEF8EFF9E8C333F8E933F97402120CEA
:1026530052122AB6F583C082C0838C0A8D0B740490
:10266300780A120BF48E088F0974027808120BF49F
:10267300121231E8C333F8E933F9D083D082122A36
:10268300C5500E8510828511837404F0A3E4F07A9B
:10269300021222EFC3EE9404EF122A95500302258F
:1026A30064851082851183C3E09404A3E0122A9504
:1026B300400B8C0C8D0D750E017C0A7D00EC240102
:1026C3000CED3400FDC3EC940AED122A955003027D
:1026D3002558E50EA2E040227508C275090778085F
:1026E300120DC77CB37D077AA37B071202A674027F
:1026F300120C1D900649E4022A8FE50C450D705318
:10270300EA640170237508CF7509077808120DC7AD
:102713007CC97D077AA37B071202A67402120C1DE3
:102723009006497401022A8FEA64026003022A9028
:102733007508DA7509077808120DC77CC97D077A11
:10274300A37B071202A67402120C1D9006497402A1
:10275300022A8F7401650C7002E50D7053EA64015F
:1027630070237508CF7509077808120DC77CE57DBE
:10277300077AA37B071202A67402120C1D90064966
:102783007403022A8FEA64026003022A907508DA4E
:102793007509077808120DC77CE57D077AA37B07C7
:1027A3001202A67402120C1D9006497404022A8FA9
:1027B3007402650C7002E50D7053EA6401702375B1
:1027C30008F47509077808120DC77CEF7D077AA313
:1027D3007B071202A67402120C1D900649740502AF
:1027E3002A8FEA64026003022A907508DA750907E2
:1027F3007808120DC77CEF7D077AA37B071202A628
:102803007402120C1D9006497432022A8F740365F8
:102813000C7002E50D7053EA640170237508CF75DF
:1028230009077808120DC77CF67D077AA37B071288
:1028330002A67402120C1D9006497406022A8FEA3E
:1028430064026003022A907508DA75090778081292
:102853000DC77CF67D077AA37B071202A6740212CA
:102863000C1D900649743C022A8F7404650C700297
:10287300E50D7053EA640170237508CF7509077875
:1028830008120DC77C047D087AA37B071202A67485
:1028930002120C1D9006497407022A8FEA64026033
:1028A30003022A907508DA7509077808120DC77CA8
:1028B300047D087AA37B071202A67402120C1D90F2
:1028C30006497446022A8F7405650C7002E50D7083
:1028D30053EA640170237508CF7509077808120D50
:1028E300C77C0C7D087AA37B071202A67402120C24
:1028F3001D9006497408022A8FEA64026003022AC3
:10290300907508DA7509077808120DC77C0C7D08E5
:102913007AA37B071202A67402120C1D9006497457
:1029230050022A8F7406650C7002E50D7053EA6439
:102933000170237508CF7509077808120DC77C1439
:102943007D087AA37B071202A67402120C1D90065F
:10295300497409022A8FEA64026003022A90750807
:10296300DA7509077808120DC77C147D087AA37BF2
:10297300071202A67402120C1D900649745A022A09
:102983008F7407650C7002E50D7053EA64017023C0
:102993007508CF7509077808120DC77C1C7D087A66
:1029A300A37B071202A67402120C1D900649740A37
:1029B300022A8FEA64026003022A907508DA750915
:1029C300077808120DC77C1C7D087AA37B071202C7
:1029D300A67402120C1D9006497464022A8F7408AF
:1029E300650C7002E50D704EEA640170227508CF24
:1029F3007509077808120DC77C2B7D087AA37B071E
:102A03001202A67402120C1D900649740C807DEA12
:102A1300640270797508DA7509077808120DC77CA6
:102A23002B7D087AA37B071202A67402120C1D9059
:102A33000649747880567409650C7002E50D704D73
:102A4300EA640170227508CF7509077808120DC76B
:102A53007C347D087AA37B071202A67402120C1D34
:102A6300900649740D8025EA640270217508DA75B1
:102A730009077808120DC77C347D087AA37B0712F7
:102A830002A67402120C1D9006497479F0740402B4
:102A93001F459400A2D265D03322744A2508F874E6
:102AA30006122AAAF583223509F9E8250AF582E9EF
:102AB300350B22122ABA22E028F508A3E03985084B
:102AC3008222C3E098A3E0122ACE2299A2D265D033
:102AD3003322122ABAF58312124C2274F0120C5EBE
:102AE30074F3120C07E9851082851183F08A0C8B2D
:102AF3000D8C0E8D0F9008617808120B17780C79E6
:102B0300081205125004D2F08002C2F0A2F0E4339E
:102B130033F8851082851183E028F0EDC2E7F50FC5
:102B23009008657808120B17780C790812055E90E7
:102B330008697808120B17780C79081204C340034C
:102B4300022C207401120C528582088583097808AF
:102B5300120DC7AA0CAB0DAC0EAD0F1202FA740224
:102B6300120C1D7405120C52120B41851082851133
:102B730083E0F508E4F509F50AF50B780812034F2D
:102B83007401120C52780C120B177808790C120787
:102B9300037401120C527808120B267409120C529A
:102BA3008582088583097808120DC77403120C52B5
:102BB3007808120B1790086D780C120B17780879A8
:102BC3000C12055EAA08AB09AC0AAD0B1202FA742B
:102BD30002120C1D7401120C527808120B17C00854
:102BE300C009C00AC00B7409120C52780C120B17DF
:102BF3009008717808120B17780C790812055ED0CB
:102C03000BD00AD009D0087808790C1206DE7808B0
:102C13001203AC851082851183E5088038850C0882
:102C2300850D09850E0A850F0B78081203ACAA08D7
:102C3300E4F50AF50B780812034F780C79081206AD
:102C4300DE7405120C52780C120B26851082851146
:102C530083E02A5403F0E0A2E050277508007509C9
:102C630000750A80750B3F7405120C52780C120B19
:102C7300177808790C1206DE7405120C52780812C4
:102C83000B26851082851183E0C39402401A7405D4
:102C9300120C527808120B17E50BB2E7F50B74050B
:102CA300120C527808120B267405120C5278081273
:102CB3000B177405120C52780C120B177808790C49
:102CC30012055E7401120C527808120B267401125D
:102CD3000C527808120B17900875780C120B1778A2
:102CE30008790C12055E900879780C120B17780896
:102CF300790C1207037401120C52780C120B17781B
:102D030008790C12055E90087D780C120B17780871
:102D1300790C1207037401120C52780C120B1778FA
:102D230008790C12055E900881780C120B1778084D
:102D3300790C1207037401120C52780C120B1778DA
:102D430008790C12055E900885780C120B17780829
:102D5300790C1207037405120C52780C120B1778B6
:102D630008790C12055EAA08AB09AC0AAD0B740D09
:102D7300120C1D7F08020CCA74F0120C5E74F6125A
:102D83000C077406120C52EAF0A3EBF0A3ECF0A3C9
:102D9300EDF07406120C527808120B17900889781C
:102DA3000C120B177808790C120512503A7406129C
:102DB3000C527808120B17900861780C120B1778D5
:102DC30008790C120497700B7A007B007C007D005D
:102DD300022F0190077F7421F0A3E4F07AFF7BFFB9
:102DE3007C7F7D7F022F0185108285118385820878
:102DF3008583097808120DC77408120C52120B351B
:102E03001202F47402120C1D7402120C52120B41C2
:102E13007402120C527808120B1790088D780C125A
:102E23000B177808790C120703900891780C120B92
:102E3300177808790C12055E7402120C52780C1282
:102E43000B17780C790812091D780C7908120703FF
:102E5300850C08850D09850E0A850F0B8510828563
:102E63001183E0A2E050251475F002120312FA90C8
:102E73000895780C120B177808790C12055EEAA2F4
:102E8300E713FAE413250AF50AEA801175F0021232
:102E93000312A2E713F8E413250AF50AE8350BF544
:102EA3000B7402120C527808120B267402120C5285
:102EB3007808120B1790086D780C120B17780879A5
:102EC3000C12055EC008C009C00AC00B7406120CC0
:102ED30052780C120B177402120C527808120B174B
:102EE300780C790812091DD00BD00AD009D00878C4
:102EF30008790C120703AA08AB09AC0AAD0B740AD4
:102F0300120C1D7F08020CCA74F0120C5E74FC12C2
:102F13000C07851082851183EAF0A3EBF0A3ECF094
:102F2300A3EDF07414120C52E0FEA3E0FF851082AF
:102F3300851183780C120B17EDC2E7F50F90085D2E
:102F43007808120B17780C79081204C38510828550
:102F530011835014120B358E828F83120B417A002A
:102F63007B007C007D0080327808120B17780812F2
:102F730003AC78081203348E828F837808120B26F1
:102F8300851082851183780C120B17780C7908123F
:102F930006DEAA0CAB0DAC0EAD0F7404120C1D7F34
:102FA30008020CCA74F0120C5E8A088B098C0A8D15
:102FB3000B7410120C52E0F8A3E0F9E8FAE9FB9065
:102FC3000861780C120B177808790C120497700EAD
:102FD3008A828B83E4F0A3F0FAFBFCFD8022EC33BE
:102FE300ED332482F83395E0F98A828B83E8F0A3EA
:102FF300E9F0AA08AB09ED5480443FFDECC2E7FCBD
:103003007F08020CCA74F4120C5EEDC2E77901FD6D
:103013001203067F04020CCA74F4120C5E790012C8
:0730230003067F04020CCA42
:04000005000000E314
:00000001FF
